:100000000C945E000C9486000C9486000C94860080
:100010000C9486000C9486000C9486000C94860048
:100020000C9486000C9486000C9486000C949A0123
:100030000C9486000C9486000C9486000C94860028
:100040000C94B7070C9486000C94D3040C9405050B
:100050000C9486000C9486000C9486000C94860008
:100060000C9486000C948600000000080002010039
:100070000003040700000000000000000102040863
:100080001020408001020408102001020408102002
:10009000040404040404040402020202020203032E
:1000A0000303030300000000250028002B000000CC
:1000B0000000240027002A009601350511241FBEE8
:1000C000CFEFD8E0DEBFCDBF11E0A0E0B1E0EAEDB8
:1000D000F7E102C005900D92A837B107D9F722E0E9
:1000E000A8E7B1E001C01D92AD34B207E1F710E01E
:1000F000CCEBD0E004C02297FE010E94D80BC83B95
:10010000D107C9F70E94A8070C94EB0B0C940000D0
:1001100069E070E08EE791E00E94F00260E070E03C
:100120008EE791E00E94290326E040E855E260E076
:1001300070E087EA91E00C9471044F925F926F92A5
:100140007F92AF92BF92CF92DF92EF92FF920F9386
:100150001F938EE00E94990890937D0180937C010B
:1001600065E071E087EA91E00E94B60560917C014C
:1001700070917D014AE050E087EA91E00E945806C4
:1001800060917C0170917D01882777FD8095982F83
:100190000E94530A20E030E040E85AE30E94070B37
:1001A00020E030E040EA50E40E94070B6B017C0144
:1001B00065E171E087EA91E00E94B60522E030E057
:1001C000B701A60187EA91E00E945E0720E030E0D7
:1001D00040E05FE3C701B6010E944F0920E030E034
:1001E00048EC52E40E94070B2B013C0163E271E0F2
:1001F00087EA91E00E94B60522E030E0B301A20157
:1002000087EA91E00E945E0764E371E087EA91E08B
:100210000E94B60560917801709179014AE050E042
:1002200087EA91E00E946D06C301B2010E94200A94
:100230001F921F921F9223EB2F93A12CB12C6501CB
:100240001EE1E12EF12C00E010E024E130E040E07E
:1002500050E00E94600770937B0160937A0162E432
:1002600071E087EA91E00E94B60560917A01709191
:100270007B014AE050E087EA91E00E9458066091D5
:1002800078017091790180E090E00E94510AA30109
:1002900092010E944F096B017C010F900F900F900B
:1002A0000F9020E030E0A9010E94030B18165CF4C7
:1002B00020E030E040EA50E4C701B6010E94030BA1
:1002C00018165CF011C020E030E040EA50ECC701A5
:1002D000B6010E94B40987FF07C06BE471E087EAAA
:1002E00091E00E94B60508C060917A0170917B018F
:1002F0008EE791E00E942903C301B2010E94250A02
:10030000709379016093780168E873E180E090E090
:100310001F910F91FF90EF90DF90CF90BF90AF9023
:100320007F906F905F904F900C9424088EE791E03F
:100330000C9456021F920F920FB60F9211242F9316
:100340003F934F935F936F937F938F939F93AF935D
:10035000BF93EF93FF938091820187FF05C01092B6
:100360008500109284001AC020918201332727FD56
:1003700030958091810190E0281739077CF48091B5
:100380008201992787FD9095FC01EE0FFF1FE80F72
:10039000F91FED57FE4F808186FD15C080918201C7
:1003A0008F5F8093820120918201332727FD309552
:1003B0008091810190E028173907BCF48091820177
:1003C0008C305CF112C080918201992787FD909555
:1003D000FC01EE0FFF1FE80FF91FED57FE4F808164
:1003E00060E08F730E941809D9CF809184009091AA
:1003F0008500049680349C4918F480E49CE905C08B
:100400008091840090918500049690938900809358
:1004100088008FEF8093820138C020918400309152
:10042000850080918201992787FD9095FC01EE0F50
:10043000FF1FE80FF91FED57FE4F81819281820F58
:10044000931F90938900809388008091820199275F
:1004500087FD9095FC01EE0FFF1FE80FF91FED5788
:10046000FE4F808186FF11C080918201992787FD10
:100470009095FC01EE0FFF1FE80FF91FED57FE4F9F
:10048000808161E08F730E941809FF91EF91BF9105
:10049000AF919F918F917F916F915F914F913F911C
:1004A0002F910F900FBE0F901F90189520918101F2
:1004B0002C30A0F431E0320F30938101FC01208315
:1004C000822F90E0FC01EE0FFF1FE80FF91FED57A0
:1004D000FE4F88EB9BE09283818308952FEFFC0110
:1004E00020830895DF92EF92FF920F931F93CF9393
:1004F000DF93EC01D62E7A01890188818C3008F0D7
:1005000066C061E08D2D0E94DF088881A82FB0E0D1
:10051000FD01EE0FFF1FEA0FFB1FED57FE4F2D2DC4
:100520002F739081907C922B908360E272E06E1921
:100530007F0977FF02C06D5F7F4F75956795759551
:100540006795698340E659E0401B510B57FF02C095
:100550004D5F5F4F55954795559547954A836CE09C
:100560000E947E0B9CE0899FB001112420E030E0C6
:10057000A901460F571FFA01EE0FFF1FE40FF51FE9
:10058000ED57FE4F908196FD16C02F5F3F4F2C30E8
:10059000310571F781110FC01092800082E08093C5
:1005A00081001092850010928400B19A80916F00B2
:1005B000826080936F00888190E0FC01EE0FFF1F46
:1005C000E80FF91FED57FE4F80818064808388819A
:1005D000DF91CF911F910F91FF90EF90DF900895E1
:1005E00020E639E040E252E00C947202FC01808186
:1005F0008C3070F5918128E830E0291B310997FD96
:100600003395220F331F220F331F621773077CF0BD
:10061000928128E532E0291B310997FD3395220F9D
:10062000331F220F331F621773070CF49B012250F4
:100630003109220F331F4FB7F89490E0FC01EE0F01
:10064000FF1FE80FF91FED57FE4F328321834FBF85
:1006500008954F925F926F927F92AF92BF92CF9226
:10066000DF92EF92FF920F931F93CF93DF93EC01F2
:10067000603282E078070CF040C077FD06C0653B31
:1006800071052CF064EB70E002C060E070E08981DD
:1006900028E830E0281B310987FD3395220F331FEE
:1006A000220F331F5901CC24B7FCC094DC2C8827BF
:1006B00077FD8095982F2A8148E552E0421B510929
:1006C00027FD5395440F551F440F551F2A016624DB
:1006D00057FC6094762C7F926F925F924F9214EB4E
:1006E000E12EF12C00E010E020E030E0A9010E94B2
:1006F00060070F900F900F900F90CE01DF91CF9178
:100700001F910F91FF90EF90DF90CF90BF90AF902F
:100710007F906F905F904F900C94F602FC01818D5A
:10072000228D90E0805C9F4F821B91098F739927E7
:100730000895FC01918D828D981731F0828DE80F1C
:10074000F11D858D90E008958FEF9FEF0895FC01D6
:10075000918D828D981761F0828DDF01A80FB11DF8
:100760005D968C91928D9F5F9F73928F90E008951C
:100770008FEF9FEF08958BE295E0892B49F080E0A1
:1007800090E0892B29F00E942B0581110C94000028
:100790000895FC01848DDF01A80FB11DA35ABF4F3E
:1007A0002C91848D90E001968F739927848FA68970
:1007B000B7892C93A089B1898C9180648C93938D97
:1007C000848D981306C00288F389E02D80818F7D87
:1007D00080830895CF93DF93EC01888D8823C9F03F
:1007E000EA89FB89808185FD05C0A889B9898C913A
:1007F00086FD0FC00FB607FCF5CF808185FFF2CFD5
:10080000A889B9898C9185FFEDCFCE010E94C903DB
:10081000E7CFDF91CF910895CF92DF92FF920F93B0
:100820001F93CF93DF931F92CDB7DEB76C0181E0AA
:10083000D60158968C9358975B969C915B975C96E3
:100840008C915C97981307C05096ED91FC9151974D
:10085000808185FD2EC0F601038D10E00F5F1F4FD4
:100860000F731127F02EF601848DF81211C00FB608
:1008700007FCF9CFD6015096ED91FC9151978081FC
:1008800085FFF1CFC60169830E94C9036981EBCF5F
:10089000838DE80FF11DE35AFF4F6083D6015B960D
:1008A0000C935B975296ED91FC91539780818062F7
:1008B0000CC0D6015696ED91FC91579760835096E7
:1008C000ED91FC91519780818064808381E090E07C
:1008D0000F90DF91CF911F910F91FF90DF90CF90FC
:1008E0000895BF92CF92DF92EF92FF92CF93DF9362
:1008F000EC016A017B01B22EE889F98982E08083EC
:10090000411581EE580761057105A1F060E079E0BD
:100910008DE390E0A70196010E948A0B21503109D6
:10092000410951095695479537952795211580E13D
:10093000380798F0E889F989108260E874E88EE158
:1009400090E0A70196010E948A0B215031094109CC
:1009500051095695479537952795EC85FD85308348
:10096000EE85FF852083188EEC89FD89B082EA89A7
:10097000FB89808180618083EA89FB89808188602E
:100980008083EA89FB89808180688083EA89FB898A
:1009900080818F7D8083DF91CF91FF90EF90DF90FA
:1009A000CF90BF9008951F920F920FB60F9211240F
:1009B0002F938F939F93EF93FF93E091B701F09163
:1009C000B8018081E091BD01F091BE0182FD12C0AD
:1009D00090818091C0018F5F8F732091C101821738
:1009E00051F0E091C001F0E0E955FE4F958F809302
:1009F000C00101C08081FF91EF919F918F912F9154
:100A00000F900FBE0F901F9018951F920F920FB668
:100A10000F9211242F933F934F935F936F937F9384
:100A20008F939F93AF93BF93EF93FF9387EA91E0E8
:100A30000E94C903FF91EF91BF91AF919F918F9158
:100A40007F916F915F914F913F912F910F900FBECA
:100A50000F901F90189587EA91E00E948E0321E085
:100A6000892B09F420E0822F08951092AA01109298
:100A7000A90188EE93E0A0E0B0E08093AB019093F1
:100A8000AC01A093AD01B093AE018AE591E09093E3
:100A9000A8018093A70185EC90E09093B401809326
:100AA000B30184EC90E09093B6018093B50180ECA3
:100AB00090E09093B8018093B70181EC90E090931F
:100AC000BA018093B90182EC90E09093BC018093CD
:100AD000BB0186EC90E09093BE018093BD01109223
:100AE000C0011092C1011092C2011092C301089579
:100AF000CF92DF92EF92FF920F931F93CF93DF93EA
:100B00007C016A01EB0100E010E00C151D0571F09D
:100B10006991D701ED91FC910190F081E02DC70121
:100B20000995892B19F00F5F1F4FEFCFC801DF9197
:100B3000CF911F910F91FF90EF90DF90CF9008958C
:100B40006115710581F0DB010D900020E9F7AD0121
:100B500041505109461B570BDC01ED91FC9102807D
:100B6000F381E02D099480E090E008950C94A005B5
:100B7000DC01ED91FC910190F081E02D09948F92C0
:100B80009F92AF92BF92DF92EF92FF920F931F93CB
:100B9000CF93DF93CDB7DEB7A1970FB6F894DEBF42
:100BA0000FBECDBF7C01F42FD52ECB0119A2223070
:100BB00008F42AE08E010F5D1F4F822E912CA12C8C
:100BC000B12C6F2F7D2DA50194010E948A0BF22F6D
:100BD000D32ECA01015011096A3014F4E0E301C0B8
:100BE000E7E3E60FD801EC93232B242B252B49F7C1
:100BF000B801C7010E94A005A1960FB6F894DEBF08
:100C00000FBECDBFDF91CF911F910F91FF90EF905D
:100C1000DF90BF90AF909F908F900895CF92DF921A
:100C2000EF92FF920F931F93CF93DF93EC016A0132
:100C30007B012115310579F4E881F9810190F0817A
:100C4000E02D642FDF91CF911F910F91FF90EF90D6
:100C5000DF90CF9009942A303105E9F477FF1AC06C
:100C60006DE20E94B8058C0144275527BA014C1942
:100C70005D096E097F092AE0CE010E94BF05800F41
:100C8000911FDF91CF911F910F91FF90EF90DF9017
:100C9000CF9008952AE0B701A601CE01DF91CF9150
:100CA0001F910F91FF90EF90DF90CF900C94BF05B4
:100CB0009A01AB01662757FD6095762F0C940E06BE
:100CC0002115310541F4DC01ED91FC910190F08199
:100CD000E02D642F09940C94BF059A01AB0160E0EC
:100CE00070E00C9460064F925F926F927F928F92A9
:100CF0009F92AF92BF92CF92DF92EF92FF920F93AB
:100D00001F93CF93DF93EC016A017B01B22E9A010E
:100D1000AB01C701B6010E946A0B882319F069E68E
:100D200071E027C026013701E89477F82FEF3FEFF5
:100D30004FE75FE7C301B2010E946A0B81110DC04A
:100D40002FEF3FEF4FE75FE7C301B2010E94B40905
:100D500018161CF46DE671E00CC02FEF3FEF4FE763
:100D60005FE4C701B6010E94030B1816ACF461E7FB
:100D700071E0CE01DF91CF911F910F91FF90EF9025
:100D8000DF90CF90BF90AF909F908F907F906F90AB
:100D90005F904F900C94A0052FEF3FEF4FE75FEC73
:100DA000C701B6010E94B40987FDE1CF20E030E021
:100DB000A901C701B6010E94B40987FF0AC06DE20C
:100DC000CE010E94B8058C01F7FAF094F7F8F09480
:100DD00002C000E010E0A12C60E070E080E09FE342
:100DE000AB1441F020E030E040E251E40E94B80949
:100DF000A394F6CF9B01AC01C701B6010E94500934
:100E00006B017C010E94250A2B013C010E94510AC2
:100E10009B01AC01C701B6010E944F096B017C0127
:100E20002AE0B301A201CE010E94BF05080F191FDD
:100E3000BB2039F065E771E0CE010E94A005080FE4
:100E4000191F7B2C772041F120E030E040E251E493
:100E5000C701B6010E94070B6B017C010E94200AAA
:100E60004B01AA2497FCA094BA2C2AE030E0B501EB
:100E7000A401CE010E940E06080F191FC501B4017E
:100E80000E94530A9B01AC01C701B6010E944F09A1
:100E90006B017C017A94D6CFC801DF91CF911F916D
:100EA0000F91FF90EF90DF90CF90BF90AF909F9009
:100EB0008F907F906F905F904F9008950C94730681
:100EC0004F925F926F927F92AF92BF92CF92DF92DA
:100ED000EF92FF920F931F93CF93DF93CDB7DEB7BF
:100EE00029013A01621B730B840B950B29893A89FE
:100EF0004B895C892A193B094C095D09298B3A8B7E
:100F00004B8B5C8B9B01AC0169897A898B899C89AD
:100F10000E946E0BE418F50806091709A80197014D
:100F20000E94AC0B2A0D3B1D4C1D5D1DCA01B90171
:100F3000DF91CF911F910F91FF90EF90DF90CF90B5
:100F4000BF90AF907F906F905F904F9008950895FD
:100F50000E945E080E94A7070E948800CBEBD3E0A6
:100F60000E949D002097E1F30E94BB03F9CF1F92DE
:100F70000F920FB60F9211242F933F938F939F934D
:100F8000AF93BF938091450290914602A091470292
:100F9000B09148023091440223E0230F2D3720F412
:100FA0000196A11DB11D05C026E8230F0296A11DC3
:100FB000B11D209344028093450290934602A09372
:100FC0004702B09348028091490290914A02A09151
:100FD0004B02B0914C020196A11DB11D80934902B4
:100FE00090934A02A0934B02B0934C02BF91AF91F1
:100FF0009F918F913F912F910F900FBE0F901F9057
:1010000018953FB7F8948091490290914A02A091B7
:101010004B02B0914C0226B5A89B05C02F3F19F09A
:101020000196A11DB11D3FBF6627782F892F9A2FEA
:10103000620F711D811D911D42E0660F771F881F91
:10104000991F4A95D1F708958F929F92AF92BF92C0
:10105000CF92DF92EF92FF926B017C010E94010818
:101060004B015C01C114D104E104F104F1F00E94D0
:101070004E090E940108681979098A099B09683E8E
:1010800073408105910570F321E0C21AD108E1088F
:10109000F10888EE880E83E0981EA11CB11CC114D3
:1010A000D104E104F10429F7DDCFFF90EF90DF9048
:1010B000CF90BF90AF909F908F900895789484B513
:1010C000826084BD84B5816084BD85B5826085BD44
:1010D00085B5816085BDEEE6F0E08081816080832A
:1010E000E1E8F0E01082808182608083808181600D
:1010F0008083E0E8F0E0808181608083E1EBF0E0D4
:10110000808184608083E0EBF0E080818160808377
:10111000EAE7F0E080818460808380818260808360
:101120008081816080838081806880831092C1008B
:1011300008958E3008F08E5087702091040190E45D
:10114000299F90011124822B80937C0080917A004A
:10115000806480937A0080917A0086FDFCCF809134
:1011600078002091790090E0922B0895833081F0EF
:1011700028F4813099F08230A1F008958730A9F0E9
:101180008830B9F08430D1F4809180008F7D03C025
:10119000809180008F7780938000089584B58F7749
:1011A00002C084B58F7D84BD08958091B0008F7793
:1011B00003C08091B0008F7D8093B0000895CF93DD
:1011C000DF9390E0FC01E458FF4F2491FC01E057CD
:1011D000FF4F8491882349F190E0880F991FFC010B
:1011E000E255FF4FA591B4918C559F4FFC01C591DD
:1011F000D4919FB7611108C0F8948C9120958223F7
:101200008C93888182230AC0623051F4F8948C91C7
:10121000322F309583238C938881822B888304C05E
:10122000F8948C91822B8C939FBFDF91CF9108957E
:101230000F931F93CF93DF931F92CDB7DEB7282F65
:1012400030E0F901E859FF4F8491F901E458FF4F6C
:101250001491F901E057FF4F04910023C9F088234E
:1012600021F069830E94B6086981E02FF0E0EE0F5B
:10127000FF1FEC55FF4FA591B4919FB7F8948C9147
:10128000611103C01095812301C0812B8C939FBFF6
:101290000F90DF91CF911F910F91089508955058AD
:1012A000BB27AA270ED075C166D130F06BD120F0D4
:1012B00031F49F3F11F41EF45BC10EF4E095E7FB9F
:1012C00051C1E92F77D180F3BA17620773078407FA
:1012D000950718F071F49EF58FC10EF4E0950B2E72
:1012E000BA2FA02D0B01B90190010C01CA01A00178
:1012F0001124FF27591B99F0593F50F4503E68F1D3
:101300001A16F040A22F232F342F4427585FF3CF13
:10131000469537952795A795F0405395C9F77EF4E4
:101320001F16BA0B620B730B840BBAF09150A1F02D
:10133000FF0FBB1F661F771F881FC2F70EC0BA0FB3
:10134000621F731F841F48F4879577956795B7953B
:10135000F7959E3F08F0B3CF9395880F08F0992733
:10136000EE0F979587950895D9D008F481E00895F8
:101370000CD00FC107D140F0FED030F021F45F3F18
:1013800019F0F0C0511139C1F3C014D198F3992369
:10139000C9F35523B1F3951B550BBB27AA27621739
:1013A0007307840738F09F5F5F4F220F331F441F7E
:1013B000AA1FA9F333D00E2E3AF0E0E830D09150B6
:1013C0005040E695001CCAF729D0FE2F27D0660FA3
:1013D000771F881FBB1F261737074807AB07B0E8E2
:1013E00009F0BB0B802DBF01FF2793585F4F2AF0F8
:1013F0009E3F510568F0B6C000C15F3FECF3983ED8
:10140000DCF3869577956795B795F7959F5FC9F754
:10141000880F911D9695879597F90895E1E0660FDD
:10142000771F881FBB1F621773078407BA0720F056
:10143000621B730B840BBA0BEE1F88F7E0950895BF
:1014400004D06894B111D9C00895BCD088F09F57DA
:1014500090F0B92F9927B751A0F0D1F0660F771F00
:10146000881F991F1AF0BA95C9F712C0B13081F0E0
:10147000C3D0B1E00895C0C0672F782F8827B85F28
:1014800039F0B93FCCF3869577956795B395D9F741
:101490003EF490958095709561957F4F8F4F9F4F4B
:1014A0000895E89409C097FB3EF490958095709557
:1014B00061957F4F8F4F9F4F9923A9F0F92F96E9A0
:1014C000BB279395F695879577956795B795F11115
:1014D000F8CFFAF4BB0F11F460FF1BC06F5F7F4FB2
:1014E0008F4F9F4F16C0882311F096E911C07723C4
:1014F00021F09EE8872F762F05C0662371F096E8CD
:10150000862F70E060E02AF09A95660F771F881F9B
:10151000DAF7880F9695879597F90895990F00083F
:10152000550FAA0BE0E8FEEF16161706E807F907B5
:10153000C0F012161306E407F50798F0621B730B50
:10154000840B950B39F40A2661F0232B242B252BD1
:1015500021F408950A2609F4A140A6958FEF811D74
:10156000811D089597F99F6780E870E060E0089515
:101570009FEF80EC089500240A94161617061806AB
:101580000906089500240A94121613061406050687
:101590000895092E0394000C11F4882352F0BB0F18
:1015A00040F4BF2B11F460FF04C06F5F7F4F8F4F7B
:1015B0009F4F089557FD9058440F551F59F05F3FB6
:1015C00071F04795880F97FB991F61F09F3F79F065
:1015D00087950895121613061406551FF2CF4695E7
:1015E000F1DF08C0161617061806991FF1CF869569
:1015F0007105610508940895E894BB27662777274D
:10160000CB0197F908958ADF08F48FEF08950BD086
:10161000C0CFB1DF28F0B6DF18F0952309F0A2CFD4
:10162000A7CF1124EACFC6DFA0F3959FD1F3950F82
:1016300050E0551F629FF001729FBB27F00DB11D56
:10164000639FAA27F00DB11DAA1F649F6627B00DE6
:10165000A11D661F829F2227B00DA11D621F739FCF
:10166000B00DA11D621F839FA00D611D221F749FDD
:101670003327A00D611D231F849F600D211D822F24
:10168000762F6A2F11249F5750408AF0E1F088236B
:101690004AF0EE0FFF1FBB1F661F771F881F915078
:1016A0005040A9F79E3F510570F05CCFA6CF5F3F39
:1016B000ECF3983EDCF3869577956795B795F795AB
:1016C000E7959F5FC1F7FE2B880F911D9695879533
:1016D00097F9089523DF880B990B0895DB018F9309
:1016E0009F930E94CB0BBF91AF91A29F800D911D44
:1016F000A39F900DB29F900D11240895991B79E03E
:1017000004C0991F961708F0961B881F7A95C9F791
:1017100080950895A1E21A2EAA1BBB1BFD010DC0E6
:10172000AA1FBB1FEE1FFF1FA217B307E407F50791
:1017300020F0A21BB30BE40BF50B661F771F881F6D
:10174000991F1A9469F760957095809590959B0103
:10175000AC01BD01CF010895052E97FB1EF4009446
:101760000E94C30B57FD07D00E948A0B07FC03D0D1
:101770004EF40C94C30B50954095309521953F4FF6
:101780004F4F5F4F089590958095709561957F4F6D
:101790008F4F9F4F08950E94DC0BA59F900DB49F23
:1017A000900DA49F800D911D11240895EE0FFF1F31
:1017B0000590F491E02D0994A29FB001B39FC00160
:1017C000A39F700D811D1124911DB29F700D811D6D
:0A17D0001124911D0895F894FFCF35
:1017DA0001000000010A74656D7053656E736F72C3
:1017EA0020697320000920566F6C7461676520694F
:1017FA007320000A2041637475616C54656D702012
:10180A006973200009206375727254656D70203DFA
:10181A0020000A616E676C653A200074656D70205D
:10182A006572726F7200000000000C0478058E0366
:10183A00A7039903EA030D0A006E616E00696E66DA
:08184A00006F7666002E00001D
:00000001FF
